:020000040800F2
:10000000E808002029020008412200085B1A0008C5
:10001000052200081F040008AF2A000800000000A5
:100020000000000000000000000000005926000849
:100030002104000800000000652400080D270008C6
:10004000430200084302000843020008430200087C
:10005000430200084302000843020008430200086C
:10006000430200084302000843020008430200085C
:10007000430200084302000843020008430200084C
:10008000430200084302000843020008430200083C
:10009000430200084302000843020008430200082C
:1000A000430200084302000843020008430200081C
:1000B000430200084302000843020008430200080C
:1000C00043020008430200084302000843020008FC
:1000D00043020008430200084302000843020008EC
:1000E00043020008430200084302000843020008DC
:1000F00043020008430200084302000843020008CC
:1001000043020008430200084302000843020008BB
:100110004302000843020008B5270008C127000871
:10012000430200084302000843020008430200089B
:10013000430200084302000843020008430200088B
:10014000430200084302000843020008430200087B
:10015000430200084302000843020008430200086B
:10016000430200084302000843020008430200085B
:100170004302000843020008430200080000000098
:10018000430200084302000800F002F800F03CF8C7
:100190000AA090E8000C82448344AAF10107DA45E2
:1001A00001D100F031F8AFF2090EBAE80F0013F0F8
:1001B000010F18BFFB1A43F0010318476844000001
:1001C00088440000103A24BF78C878C1FAD8520792
:1001D00024BF30C830C144BF04680C6070470000C1
:1001E0000023002400250026103A28BF78C1FBD840
:1001F000520728BF30C148BF0B6070471FB503F0DE
:1002000028FA1FBD10B510BD00F0CFF81146FFF75A
:10021000F5FF03F003FA00F0EDF803B4FFF7F2FF87
:1002200003BC00F0F5F80000094880470948004782
:10023000FEE7FEE7FEE7FEE7FEE7FEE7FEE7FEE796
:10024000FEE7FEE704480549054A064B70470000F3
:10025000A527000889010008E8020020E80800201E
:10026000E8040020E804002053EA020C00F0698052
:100270002DE9F04B4FF00006002B1FBFB3FA83F5BA
:1002800003FA05F424FA05F65E4012BF1643B2FAEB
:1002900082F502FA05F4C5F120051EBF22FA05FC1D
:1002A00044EA0C04203556EA044C4FEA144418BFC3
:1002B000641C4FF000084FF00009904271EB030CF2
:1002C00039D3002919BFB1FA81F701FA07F6B0FA5C
:1002D00080F700FA07F6C7F120071EBF20FA07FCD7
:1002E00046EA0C062037B6FBF4FCA7EB0507103FE7
:1002F00007F01F0BCBF120060CFA0BFB2CFA06F6CD
:1003000044BFB3460026202FA4BF5E464FF0000B2B
:100310005BEA060C08BF4FF0010B19EB0B09ABFBB6
:10032000027C48EB0608C01B06FB02CC0BFB03CC8F
:1003300071EB0C01C1E70B46024641464846BDE859
:10034000F08B13B54FF000004FF00001AFF30080C9
:10035000BDE81C4070474FF0000200B513469446BC
:100360009646203922BFA0E80C50A0E80C50B1F10D
:100370002001BFF4F7AF090728BFA0E80C5048BF21
:100380000CC05DF804EB890028BF40F8042B08BFBF
:10039000704748BF20F8022B11F0804F18BF00F8BB
:1003A000012B7047704770477047754600F02CF876
:1003B000AE4605006946534620F00700854618B052
:1003C00020B5FFF73FFFBDE820404FF000064FF09B
:1003D00000074FF000084FF0000B21F00701AC467A
:1003E000ACE8C009ACE8C009ACE8C009ACE8C00999
:1003F0008D46704710B50446AFF300802046BDE837
:100400001040FFF70ABF0000004870478802002034
:1004100001491820ABBEFEE7260002007047FEE748
:10042000704772B6FEE7000070B5044600F010F9A0
:100430000546601C02D004480078044400F008F926
:10044000401BA042FAD370BD1C0000202DE9F84FDC
:10045000DFF8BCA10022012503264FF00F090AF1A5
:10046000040BAAF1040E00BF0B6805FA02F4234046
:10047000A34270D10F7907F00307012F01D0022F9B
:1004800016D187684FEA420806FA08FC27EA0C07EB
:10049000D1F80CC00CFA08FC4CEA070CC0F808C0F4
:1004A0004768A7430C79C4F3001494403C4344606C
:1004B0000C79E443A4070AD0C4684FEA420C06FA58
:1004C0000CF7BC438F6807FA0CF72743C7600C7919
:1004D00004F00304022C12D1D40800EB840CDCF8E5
:1004E00020405707FF0E09FA07F824EA0804D1F85C
:1004F000108008FA07F848EA0408CCF8208004685D
:100500004FEA420C06FA0CF7BC430F7907F00307D9
:1005100007FA0CF7274307604C6814F4403F70D08B
:100520003C4C276847F480472760246822F0030783
:1005300004F480440094384C07EB040CDCF80848C1
:1005400097074FEA177809FA08F7BC43334FB842C8
:1005500002D1002724E054E0314FB84201D10127F5
:100560001EE0304FB84201D1022719E02E4FB842A9
:1005700001D1032714E02D4FB84201D104270FE029
:100580002B4FB84201D105270AE02A4FB84201D1CA
:10059000062705E0284FB84201D1072700E00827C9
:1005A00007FA08F72743CCF80878DAF800405746EE
:1005B000D1F804C09C435FEACC2C00D51C433C60BE
:1005C000DBF800405F46D1F804C09C435FEA8C2C06
:1005D00000D51C433C60DEF800407746D1F804C0EB
:1005E0009C435FEA8C3C00D51C433C60084F083FAD
:1005F0003C68D1F804C09C435FEACC3C00D51C4366
:100600003C60521C102AFFF42FAFBDE8F88F0000A9
:10061000083C0140443802400030014000000240E4
:100620000004024000080240000C0240001002409A
:100630000014024000180240001C024000690840FB
:1006400000D0012070470AB1816170470904FBE7BF
:1006500001488068704700001C00002070B504004D
:1006600025D094F83D00002520B984F83C50204660
:1006700000F050F9242084F83D002068016821F042
:10068000010101602068016841F4004101602068B7
:10069000016821F40041016000F0A4FA4D4A61684C
:1006A000914201D84C4900E04C49884201D20120D6
:1006B00070BD4B492368B0FBF1F15E6826F03F0640
:1006C0000E435E606368934206D94FF496735943B4
:1006D0004FF47A73B1FBF3F12368491C1E6A26F0CC
:1006E0003F06314319626168914210D84900401EAB
:1006F000B0FBF1F2521CC2F30B02042A01D2042017
:1007000022E0B0FBF1F0401CC0F30B001CE0A2683B
:10071000F2B301EBC10303EB0116431EB3FBF6F387
:100720005B1C43F480431B0549D092B301EBC1022B
:1007300002EB0111401EB0FBF1F0401CC0F30B00B6
:1007400040F4804040F400402168CA694CF6FF73D1
:100750009A431043C861D4E9071001432068026836
:1007600022F0C00211430160D4E903010143206873
:10077000826848F2FF339A4311438160D4E905014E
:1007800008432168CA6822F0FF021043C86001E0F4
:100790000EE016E02068016841F001010160256467
:1007A000202084F83D00256384F83E50002070BD71
:1007B00001EB4106431EB3FBF6F35B1CB3E70120DC
:1007C000C2E701EB4101401EB0FBF1F0401CC0F359
:1007D0000B00B7E7A086010080841E0000093D00E1
:1007E00040420F002DE9FF4F83B09A46DDE9119793
:1007F00093460446DDF84080FFF72AFF054694F84B
:100800003D0020287FD11923012240492046009530
:1008100001F0BCF9002876D194F83C00012872D090
:10082000012084F83C0020680168C90703D10168F1
:1008300041F0010101602068016821F4006101605C
:10084000212084F83D00402084F83E0000262664E4
:10085000C4F82480A4F82A90608D20852C48E0629A
:10086000CDE9007553465A462046049901F00EF929
:1008700070B930E02A463946204601F02DFA58B1C9
:10088000206C042804D12068016841F400710160E3
:10089000012007B0BDE8F08F606A21680078086128
:1008A000606A401C6062218D491E89B22185628D7B
:1008B000521E628522685369DB435B070BD469B122
:1008C00000781061606A401C6062208D401E2085A7
:1008D000608D401E6085208D0028CBD12A46394688
:1008E000204601F027F90028CAD154F83D0B0168D1
:1008F00041F400710160202004F81E09E677667754
:100900000020C6E7FFE70220C3E700000200100056
:100910000000FFFF10B586B0044614216846FFF7BB
:100920001AFD13492068884220D11248002102682C
:1009300042F002020260006800F002000590C02050
:1009400000901220CDE901010320039004200490BF
:1009500069460948FFF77AFD06481030016841F4FE
:1009600000110160006800F40010059006B010BD91
:1009700000540040303802400004024002488168C0
:1009800002781144816070471C0000200B4810B5AC
:10099000016841F400710160016841F48061016007
:1009A000016841F480710160032000F06FF80F20AE
:1009B00000F006F800F024F8002010BD003C0240D2
:1009C00070B50D4D04464FF47A712878B1FBF0F004
:1009D0000A490968B1FBF0F000F0FAFA48B9102CA6
:1009E00007D200222146501E00F030F800206C6033
:1009F00070BD012070BD00001C00002028000020F8
:100A00000A4808B5016841F480410160006800F4BB
:100A1000804000900548001F016841F0805101604E
:100A2000006800F08050009008BD0000443802408B
:100A3000002809DB00F01F020121914040098000DD
:100A400000F1E020C0F8001170470000F0B40E4B38
:100A50001B680C46C3F30223C3F10705042D00D91C
:100A60000425191D072901D2002300E0DB1E012601
:100A700006FA05F1491E214099409E40761E164017
:100A80003143F0BC02F01CB80CED00E0064900F068
:100A9000070208684FF6FF03184040EA0220034AA5
:100AA00010430860704700000CED00E00000FA05FC
:100AB0002DE9F0470E46050065D0DFF81481D8F81F
:100AC0000000F7B200F00700B04207D288F80070CB
:100AD000D8F8000000F00700B04254D128683D4C1F
:100AE000810712D5400703D5206840F4E05020600C
:100AF0002878000703D5206840F460402060206813
:100B0000A96820F0F000084320602878C0072DD0A5
:100B1000304968680839012812D0022813D0032808
:100B200011D00968890700292DDA216821F0030115
:100B300001432160FFF78CFD814641F2883A0EE0C7
:100B400009688903EFE709688901ECE7FFF780FD91
:100B5000A0EB0901514502D90320BDE8F0872068C8
:100B6000696800F00C00B0EB810FEFD1D8F80010ED
:100B7000404601F00701B14207D90770006800F054
:100B80000700B04201D00120E7E72878400705D5EB
:100B90002068E96820F4E0500843206028780007C6
:100BA00006D52068296920F4604040EAC100206031
:100BB00000F028F82168084AC1F30311515CC840CD
:100BC0000649086006480068FFF7FAFE0020C4E7FF
:100BD000003C0240083802405C3600082800002033
:100BE000200000200448054900680968044AC1F350
:100BF0008221515CC840704728000020083802401C
:100C00006C360008154810B5006810F00C02144846
:100C100013D04110042A0FD0082A0ED10F4C241FE4
:100C20002268236802F03F025B0207D52068C0F308
:100C30008810A0FB010106E0084610BD2168C1F341
:100C40008811A1FB00010023FFF70EFB2168C1F30F
:100C50000141491C4900B0FBF1F010BD08380240C9
:100C60000024F4002DE9F84F04006ED02078DFF85E
:100C70004C93C007A9F104054AD009F104000168AA
:100C8000C1F38101012908D00068C0F38100022866
:100C90000AD1D9F80000400206D52868800337D56C
:100CA00060680028E1D033E06068B0F5803F10D084
:100CB000B0F5A02F286810D020F480302860286874
:100CC00020F4802028606068A8B1FFF7C1FC0646C8
:100CD0000DE0286840F48030F4E740F4802028607C
:100CE000F7E700BFFFF7B4FC801B642873D82868BF
:100CF0008003F7D50CE0FFF7ABFC064605E000BF2C
:100D0000FFF7A6FC801B6428F0D828688003F7D47E
:100D10002078DFF8AC8280074FF0000A3ED5A74864
:100D2000001D016811F00C0F08D00068C0F38100AD
:100D300002280BD1D9F80000400207D428688007A8
:100D400016D5E068012800D112E033E1E068B8B1BF
:100D50000120C8F80000FFF77BFC064605E000BF55
:100D6000FFF776FC801B0228C0D828688007F7D5DB
:100D70002868216920F0F80040EAC10028600DE0F1
:100D8000C8F800A0FFF764FC064604E0FFF760FC2B
:100D9000801B02281FD828688007F7D42078000716
:100DA00022D5864F87486169703771B10121016092
:100DB000FFF74EFC064604E0FFF74AFC801B0228C2
:100DC00009D838688007F7D50EE0C0F800A0FFF713
:100DD0003FFC064605E082E0FFF73AFC801B022854
:100DE0007DD838688007F7D42078400768D5DFF8C9
:100DF000CCB100270BF13C0BDBF80000C0000BD49A
:100E0000DBF8001041F08051CBF80010DBF8000057
:100E1000012700F0805000906B4E3068C00510D460
:100E2000306840F480703060FFF712FC009005E0FD
:100E3000FFF70EFC0099401A022850D83068C00510
:100E4000F6D55E4EA0686C3601280FD005283068B4
:100E500010D020F001003060306820F004003060D5
:100E6000A068B8B1FFF7F4FB00900FE0306840F0E5
:100E70000100F4E740F004003060F7E7FFF7E8FB1B
:100E80000099411A41F28830814266D83068800763
:100E9000F4D50EE0FFF7DCFB009007E0FFF7D8FB8E
:100EA0000099411A41F28830814256D83068800753
:100EB000F4D42FB1DBF8001021F08051CBF80010F2
:100EC000A069C8B33D49091D0968C1F38101022920
:100ED0004AD00228504607D0C8F8600000E03CE045
:100EE000FFF7B6FB04463BE04746C8F86000FFF753
:100EF000AFFB064605E000BFFFF7AAFB801B0228F8
:100F00002BD828688001F7D4D4E907010843A16AE7
:100F10002E4A490802EB0141626A41EA8211084304
:100F200094F82C1040EA0161C9F8001001203866DD
:100F3000FFF78EFB044606E03EE000BFFFF788FBAC
:100F4000001B022809D828688001F7D534E000BFCB
:100F5000FFF77EFB001B022802D90320BDE8F88FB3
:100F600028688001F4D427E00128F7D0D9F80000E0
:100F7000E26900F4800191421CD1226A00F03F0135
:100F8000914217D147F6C071626A0140B1EB821FEE
:100F900010D1A26A4FF0FF3300F4403103EB52024C
:100FA000B1EB024F06D194F82C1000F07060B0EB5A
:100FB000016F01D00120D1E70020CFE704380240C3
:100FC00000004742800E4742007000400000FFFFD3
:100FD00010B5401EB0F1807F01D3012010BD4FF04D
:100FE000E02460610F21601701F06AFD0020A0611C
:100FF00007202061002010BD7047704710B590F8A1
:101000003C20012A22D0012280F83C20CA688C684A
:1010100022F4407222434C6822F4806222430C681E
:1010200022F4006222430C6922F4805222434C696C
:1010300022F400522243C969002322F480420A4369
:1010400001684A6480F83C30002010BD022010BDC9
:1010500070B590F83C20012A32D0012480F83C4041
:10106000022280F83D2003685A689D6822F07006CD
:101070000A6832435A60134B02689A4214D0B2F1A4
:10108000804F11D0104B9A420ED0104B9A420BD089
:101090000F4B9A4208D00F4B9A4205D00E4B9A4202
:1010A00002D00E4B9A4204D1496825F080031943BF
:1010B000916080F83D40002180F83C10084670BDEA
:1010C000022070BD00000140000400400008004004
:1010D000000C0040000401400040014000180040A6
:1010E00010B5040003D094F83D0010B107E00120D2
:1010F00010BD002084F83C00204600F01FF80220BC
:1011000084F83D00211D206801F060FB012084F877
:10111000460084F83E0084F83F0084F8400084F8DC
:10112000410084F8420084F8430084F8440084F8C5
:10113000450084F83D00002010BD000008B501689E
:101140001A48814209D11A48016841F00101016041
:10115000006800F00100009008BD1548154A001F06
:1011600091420ED1016841F0100101600068002237
:1011700000F01000009011463620FFF767FC362083
:1011800010E00D4A9142E7D1016841F02001016071
:101190000068002200F02000009011463720FFF781
:1011A00055FC3720BDE80840FFF742BC0000014075
:1011B00044380240001000400014004090F83D10F8
:1011C000012901D001207047022180F83D100168FB
:1011D000CA6842F00102CA6000681149884214D00E
:1011E000B0F1804F11D00F4988420ED00E4988428D
:1011F0000BD00E49884208D00D49884205D00D49D0
:10120000884202D00C49884204D1816801F007016C
:10121000062903D0016841F00101016000207047F8
:10122000000001400004004000080040000C0040A5
:1012300000040140004001400018004070B5044621
:1012400090F83C000025012817D0012684F83C6066
:10125000022084F83D002068826822F0770222F4A0
:101260007F4282600868502838D00DDC20284FD09B
:1012700005DC90B3102811D14AE0022070BD30285F
:1012800046D040280AD13BE060282FD070280DD0EE
:10129000B0F5805F03D0B0F5005F12D0012584F86F
:1012A0003D60002084F83C00284670BDCB68D1E941
:1012B0000121206801F003FB2068816841F077017B
:1012C00009E0CB68D1E90121206801F0F8FA206833
:1012D000816841F480418160E1E719E0CA684968AA
:1012E000206801F0C1FB5021206806E0CA68496807
:1012F000206801F0CAFB6021206801F0EAFACEE71D
:10130000CA684968206801F0AFFB40212068F4E713
:10131000226801461046F0E72DE9F0410D46040031
:1013200003D094F83D0018B108E00120BDE8F08139
:10133000002084F83C00204600F040F8022084F8A9
:101340003D002068816844F2070291438160211DBD
:10135000206801F03BFA226890689169166A2B6850
:10136000AF69034340F20330814341EA0721A86893
:10137000EF6908434FF6FC418843E96840EA0720DB
:10138000014328692F6A000140EA07300843696871
:101390006D6926F0AA0646EA05152943936022687E
:1013A000906154F8460B0162012004F81F09E075B2
:1013B0002076E0762077A0750020B7E7F0B587B0FB
:1013C000044614216846FEF7C6FF2A492268002415
:1013D000284810390225284EB2F1804F1ED0274BE5
:1013E0009A4219D1026842F002020260006800F0DD
:1013F00002000590086840F002000860086869462D
:1014000000F00200059030200090CDE901543046F4
:10141000CDE90345FFF71AF807B0F0BD026842F0C6
:1014200001020260006800F001000590086840F0C9
:1014300001000860086800F001000590086840F0AD
:10144000020008600868012700F0020005902020D3
:101450000090CDE90154CDE9034769460848FEF7FD
:10146000F5FF08200090CDE90154CDE90347694616
:101470003046CFE7403802400004024000040040FC
:101480000000024070B590F83E60044690F83F506E
:1014900090F8423090F84320022021B104290ED068
:1014A000012E1BD114E0012E18D1012B16D184F886
:1014B0003E0084F8420001220021206820E0012D36
:1014C0000CD1012A0AD184F83F0084F8430014E0CB
:1014D000012D03D1012B01D1012A01D0012070BDC2
:1014E00084F83E0084F83F0084F8420084F843000A
:1014F00001220021206801F0D5F901220421206891
:1015000001F0D0F92068016841F00101016000207C
:1015100070BD70472DE9F04104460068C668056952
:101520004FF00007A90713D5B10711D5F91E0161C6
:1015300001202077206880698007204602D0FFF7CD
:10154000E8FF04E000F0A8F8204600F03AF9277719
:10155000680716D5700714D521686FF0040008617C
:10156000022020772068806910F4407F204602D056
:10157000FFF7CFFF04E000F08FF8204600F021F9DC
:101580002777280715D5300713D521686FF0080095
:101590000861042020772068C0698007204602D0B7
:1015A000FFF7B7FF04E000F077F8204600F009F9F4
:1015B0002777E80616D5F00614D521686FF01000DD
:1015C0000861082020772068C06910F4407F204619
:1015D00002D0FFF79EFF04E000F05EF8204600F026
:1015E000F0F82777E80708D0F00706D021686FF0F9
:1015F00001000861204600F049F9280608D53006A8
:1016000006D521686FF0800008612046FFF7F4FCE2
:10161000680608D5700606D521686FF0400008619D
:10162000204600F019FAA8060AD5B00608D52168A8
:101630006FF0200008612046BDE8F041FFF7DDBCF7
:10164000BDE8F08110B586B0044614216846FEF767
:1016500082FE0E492068884216D10D48002102689A
:1016600042F010020260006800F0100005904FF494
:10167000206000900220CDE901010120CDE9031096
:1016800069460448FEF7E2FE06B010BD00000140C6
:101690003038024000100240704770B5044690F8A0
:1016A0003C0000260D4601280FD0012084F83C00A4
:1016B0006AB1042A1DD0082A2FD00C2A3FD0012657
:1016C000002084F83C00304670BD022070BD2068C8
:1016D00001F008F92068816941F008018161206802
:1016E000816921F004018161206881692A691143BF
:1016F00011E0206801F026F92068816941F4006159
:1017000081612068816921F480618161206881693B
:101710002A6941EA02218161D2E7206801F048F993
:101720002068C16941F00801C1612068C16921F0E8
:101730000401C1612068C1692A69114311E0206870
:1017400001F06AF92068C16941F40061C161206853
:10175000C16921F48061C1612068C1692A6941EAD7
:101760000221C161ACE710B5040003D094F83D003C
:1017700010B107E0012010BD002084F83C00204695
:1017800000F01EF8022084F83D00211D206801F0C1
:101790001DF8012084F8460084F83E0084F83F00DC
:1017A00084F8400084F8410084F8420084F8430043
:1017B00084F8440084F8450084F83D00002010BD02
:1017C0007047704710B50446022249B104290ED073
:1017D000082913D094F84100012816D0012010BD2B
:1017E00094F83E000128F9D184F83E200FE094F8E7
:1017F0003F000128F2D184F83F2008E094F840002F
:101800000128EBD184F8402001E084F84120012236
:10181000206801F047F816492068164A884201D02E
:10182000904203D1436C43F40043436420688842F0
:1018300013D0B0F1804F10D00F4988420DD00F491E
:1018400088420AD00E49884207D0904205D00D49FF
:10185000884202D00C49884204D1816801F0070116
:10186000062903D0016841F001010160002010BD8C
:101870000000014000040140000400400008004056
:10188000000C004000400140001800402DE9F05FCE
:101890000546006864490026644C88420AD101F07C
:1018A00073FE207830B12069401C2061142801DBD0
:1018B000267026615E49286888426ED16078DFF81C
:1018C0007481DFF874A15D4D5D4FC0B3022000F05C
:1018D00095FE3860BB46B946032000F08FFE594F95
:1018E000414246463960D8F80020D9F8000010443B
:1018F000C8F800002A68D04611442960DAF80010C0
:1019000000F038FE5049A060096801F0D1F8DFF816
:101910003C91A0602868D9F8001000F0E7FD4C4920
:10192000E060096801F0C4F8E0603168D8F80000B0
:10193000081A00F081FC032802DA002006E014E017
:10194000A168DBF8000000F025FAA06000F0B2FE0C
:101950002968D9F80000081A00F06EFC032801DAA3
:1019600000205DE0E168386857E0A07818B30220F5
:1019700000F044FED8F8001046460844C8F80000BD
:10198000032000F03BFE2968081A2860DAF80010EE
:101990003068814202D1002003E03AE000F0EAFD25
:1019A000A06000F087FE2948016828688142D7D0EE
:1019B00000F09CFD33E0E07800282AD0022000F0FF
:1019C0001DFE3860032000F019FE1E4DDFF8788000
:1019D00040422860DFF87C90D8F8000038B93868B9
:1019E00000F02AFC052802DAC9F8346007E0D8F8CC
:1019F0000010386800F0CEF9A06000F05BFE144FD4
:101A0000386840B9286800F017FC052803DAC9F8DF
:101A10003860BDE8F09F3968286800F089F9E06017
:101A2000BDE8F05F00F01ABE00100040000000208A
:101A3000001400409C000020AC000020A00000200A
:101A4000A4000020A8000020B4000020B000002066
:101A5000B8000020000001407047FEE701684A69B5
:101A6000D24352050FD46FF480624A61002140F8DE
:101A7000301F202242738173026942F00402026126
:101A80000173012070470020704700002DE9F843E2
:101A9000044600680D46DDE9089701689846164639
:101AA00041F4807101604B4600224FF00111204645
:101AB000009700F06BF848B120680068C00502D5B7
:101AC0004FF4007020640320BDE8F883216805F01E
:101AD000FE0008613B464A461549204600F09EF844
:101AE00088B920684169806900903A464946204695
:101AF00000F0F2F848B1206C042804D12068016895
:101B000041F4007101600120DEE7F5B2B8F1010F88
:101B100009D02168300A08613A464946204600F05B
:101B2000DBF80028E7D1206805610020CCE7000041
:101B30000200010070B516460D4604461EE0204620
:101B4000FFF78CFF08B1012070BD681C16D0FEF7AE
:101B50007FFD801BA84200D885B920684069C0433A
:101B600040070BD5002044F8300F20216173A0738B
:101B7000216941F0200121612073E4E72068406978
:101B8000C0434007DBD4002070BD00002DE9F047C2
:101B9000984617460D460446C1F30746DDF82090E7
:101BA0002AE000BFB8F1FF3F26D0FEF751FDA0EBC1
:101BB0000901414502D8B8F1000F1DD12068012E5E
:101BC00016D0806925EA00000004000C12D0002025
:101BD000B84211D1002044F8300F20216173A07366
:101BE000216941F02001216120730120BDE8F087C7
:101BF0004069E7E70120EBE72068012E0AD0806901
:101C000025EA00000004000C06D00020B842C9D02C
:101C10000020EBE74069F3E70120F7E72DE9F04703
:101C2000984616460D4604464FF000094FF0200A2C
:101C3000C1F3074723E020684069C043400515D43D
:101C40002068016841F40071016021686FF48060D0
:101C50004861C4F8309084F83DA084F83E90216C2F
:101C600041F00401216484F83C9021E0701C06D00E
:101C7000FEF7EEFCA0EB0800B04203D816B1012F2E
:101C80001FD021E02068012F15D0806925EA0000CF
:101C90000004000C18D000BF44F8309F84F80DA059
:101CA00084F80E90216941F02001216184F80C90A4
:101CB0000120BDE8F087406925EA00000004000C1F
:101CC000EAD12068406901E02068806925EA0000C7
:101CD0000004000CAFD1ECE770B516460D46044683
:101CE0001EE02046FFF7BAFE08B1012070BD681C57
:101CF00016D0FEF7ADFC801BA84200D885B920683D
:101D00004069C04300060BD5002044F8300F202165
:101D10006173A073216941F0200121612073E4E720
:101D200020684069C0430006DBD4002070BD00007D
:101D3000081A00EE100A1648B0EE002AB8EEC00AE3
:101D4000D0ED1A0AD0ED091A30EE601A21EE211AF0
:101D5000D0ED0A1A01EE801AF0EE401A40EEC21AD7
:101D600090ED1B2A71EE821A90ED0B2A02EE211AD9
:101D7000D0ED191A31EE211A80ED191AC0ED1B0AA7
:101D800080ED1A0ABDEEC10A10EE100A704700007D
:101D90002C000020081A00EE100A1648B0EE002AA7
:101DA000B8EEC00AD0ED160AD0ED061A30EE601A71
:101DB00021EE211AD0ED071A01EE801AF0EE401A3A
:101DC00040EEC21A90ED172A71EE821A90ED082AA1
:101DD00002EE211AD0ED151A31EE211A80ED151AF6
:101DE000C0ED170A80ED160ABDEEC10A10EE100A0A
:101DF000704700002C0000202DE9F04F87B014211F
:101E00006846FEF7A8FA59480024016841F010011D
:101E10000160016801F010010591016841F00401C1
:101E20000160016801F004010591016841F02001A1
:101E30000160016801F020010591016841F0800115
:101E40000160016801F080010591016841F0010124
:101E50000160016801F001010591016841F0020192
:101E60000160016801F002010591016841F008017B
:101E70000160016801F008010591016841F040012D
:101E800001600068DFF8E89000F040000590002253
:101E90000F214846FEF7D7FBDFF8D8A0002201212A
:101EA0005046FEF7D0FB0122DFF8CCB017023946CE
:101EB0005846FEF7C8FB4FF40048012241462F4820
:101EC000FEF7C1FB0F200126CDE900060225694679
:101ED0004846CDE90245FEF7B9FA10208DE83100F9
:101EE00069464846FEF7B2FA4FF484708DE8310037
:101EF00069462348FEF7AAFA009669462148CDE9CB
:101F00000145FEF7A3FA0096CDE901656946504602
:101F10000395FEF79BFACDE90054694650460294BA
:101F2000FEF794FACDE90076CDE902656946584698
:101F3000FEF78CFA4FF4E070CDE9000469460F48D3
:101F40000294FEF783FA28028DE8310069460B48B7
:101F5000FEF77CFACDE9008669460848CDE90245DE
:101F6000FEF774FA07B0BDE8F08F00003038024089
:101F70000010024000040240000C02400018024021
:101F800000140240000002400D4810B50B490160EA
:101F90000C49416000214FF480428160C0E9031286
:101FA00041618161C1610162FEF758FB002803D0E5
:101FB000BDE81040FEF735BA10BD000000540040E7
:101FC000BC000020A086010010B596B000240F943C
:101FD00010941194129413941C2168461494FEF7E3
:101FE000BAF9202107A8FEF7B6F92C482A49C0E91A
:101FF000001442F2CF01C0E90241046144618461EE
:10200000FFF76EF808B1FEF70CFA4FF480500F900E
:102010000FA92248FFF712F908B1FEF702FA1F488C
:10202000FFF7A1FB08B1FEF7FCF9139413A91B48B5
:102030001494FFF70DF808B1FEF7F3F96020CDE92D
:102040000004029403940494059400226946134802
:102050000694FFF722FB08B1FEF7E3F90422694674
:102060000E48FFF71AFB08B1FEF7DBF90794089456
:1020700009944FF400500A94CDE90B4007A9074892
:102080000E94FEF7BBFF08B1FEF7CBF90348FFF74C
:10209000D9FA16B010BD0000000001401001002068
:1020A00010B58CB024216846FEF755F90024154878
:1020B00009944FF080410A94C0E90014611EC0E900
:1020C0000241046184610320CDE900040120CDE9CF
:1020D00002040494CDE90540079469460948089430
:1020E000FFF71AF908B1FEF79CF9099409A9054808
:1020F0000A94FEF7ADFF002801D0FEF792F90CB06C
:1021000010BD00005801002010B58CB02421684695
:10211000FEF721F900241648099414490A94C0E9ED
:1021200000144FF6FF71C0E902410461846103208D
:10213000CDE900040120CDE902040494CDE9054075
:10214000079469460A480894FFF7E6F808B1FEF7D5
:1021500068F9099409A906480A94FEF779FF00284E
:1021600001D0FEF75EF90CB010BD00000004004085
:10217000A00100201CB500240F4800940D490194D3
:1021800001605321C0E9011442F20F71C160802146
:102190008161FEF7A5FF08B1FEF743F90094694697
:1021A00005480194FEF754FF002801D0FEF739F9E5
:1021B0001CBD000000100040E80100201CB50024F8
:1021C0000F4800940D49019401605321C0E90114A6
:1021D00042F20F71C16080218161FEF781FF08B179
:1021E000FEF71FF90094694605480194FEF730FF99
:1021F000002801D0FEF715F91CBD000000140040B6
:1022000030020020FEE7000010B500224FF400412C
:102210000648FEF718FA06490020486388634863B9
:10222000886304490867486710BD00000018024031
:10223000000001402C000020002800DA40427047D6
:10224000FEE70000F3EE0C0A20EE200ADFED060A9E
:1022500020EE200AF1EE000A20EE200ABDEEC00AB0
:1022600010EE100A704700000000FA4370B5002419
:102270000021204600F061F80025002000F0E0F881
:102280006D1CEDB2802DF8D3641CE4B2082CEFD3A2
:1022900070BD10B5C820FEF7C7F8AE2000F0BEF83C
:1022A000D52000F0BBF8802000F0B8F8A82000F09E
:1022B000B5F83F2000F0B2F8D32000F0AFF80020CE
:1022C00000F0ACF8402000F0A9F8A12000F0A6F83A
:1022D000C82000F0A3F8DA2000F0A0F8122000F0E7
:1022E0009DF8812000F09AF8CF2000F097F8D920CF
:1022F00000F094F8F12000F091F8DB2000F08EF867
:10230000302000F08BF8A42000F088F8A62000F020
:1023100085F88D2000F082F8142000F07FF8AF20BF
:1023200000F07CF8BDE81040FFF7A0BF0246012096
:1023300000E05043491EFCD2704710B50C4640F0F7
:10234000B00000F06BF8102040EA141000F066F8BE
:1023500004F00F00BDE8104000F060B82DE9F04136
:102360000746CE004000083E801E15464FF0FF385D
:10237000F1B2C0B2FFF7E1FF1148002400EB0515F0
:102380002819A0F5805090F8000E00F059F8641C50
:10239000E4B2082CF4D308EB4700F1B2C0B2FFF767
:1023A000CCFF00242819A0F5805090F8080E00F00A
:1023B00047F8641CE4B2082CF4D3BDE8F0810000B7
:1023C000743600082DE9F0471E4614008846814601
:1023D00004D42B22FFF7C2FF254603E02D22FFF78E
:1023E000BDFF654200240A2714E0311B0A20491E64
:1023F000FFF79CFFB5FBF0F0B0FBF7F107FB110214
:1024000008EB0400401CC1B248463032FFF7A6FF7B
:10241000641CE4B2B442E8D3BDE8F08701B584B0EF
:10242000012104A864228DE807000B4600227821D0
:102430000248FEF7D7F905B000BD0000BC0000203F
:1024400001B584B0012104A864228DE807000B4681
:10245000402278210248FEF7C5F905B000BD000012
:10246000BC0000207047000010B50122110217487F
:10247000FEF7E9F8002201211548FEF7E4F80122F1
:10248000D1031448FEF7DFF8FFF703FF1248FEF709
:1024900095FE1248FEF792FE00211148FFF792F9CF
:1024A00004210F48FFF78EF900210E48FEF7EAFFDE
:1024B00004210C48FEF7E6FF00210B48FEF7E2FF7F
:1024C000BDE8104004210848FEF7DCBF000C0240C4
:1024D0000004024000180240E80100203002002001
:1024E0001001002058010020A0010020081A00EE71
:1024F000100A1B481B4AB8EEC00AD0ED130A70EE52
:10250000800A10EE901AC0ED130A914203DDDFED50
:10251000160AC0ED130A10EE901A144A914203D91C
:10252000DFED130AC0ED130AD0ED030A90ED041A93
:10253000D0ED131A60EE800A41EE210A90ED121AD6
:10254000D0ED051A30EE411A41EE810AC0ED110AB4
:1025500080ED120ABDEEE00A10EE100A704700008E
:102560002C00002000401C4600401C4600401CC6B9
:1025700000401CC6081A00EE100A1B481B4AB8EEA1
:10258000C00AD0ED0F0A70EE800A10EE901AC0ED6E
:102590000F0A914203DDDFED160AC0ED0F0A10EEBF
:1025A000901A144A914203D9DFED130AC0ED0F0AC5
:1025B000D0ED000A90ED011AD0ED0F1A60EE800AFE
:1025C00041EE210A90ED0E1AD0ED021A30EE411ABA
:1025D00041EE810AC0ED0D0A80ED0E0ABDEEE00A63
:1025E00010EE100A704700002C00002000401C462E
:1025F00000401C4600401CC600401CC6024600208D
:102600000146022A06D0032A03D1054A1068116048
:1026100000B270474FF08042506A516200B270477A
:1026200024040040F3EE0C0A20EE200ADFED080A35
:1026300020EE200AF1EE000A20EE200ADFED050A66
:1026400080EE201ABDEEC10A10EE100A704700009D
:102650000000FA430080BB457047000070B5134D81
:10266000134E041E0ADD012204212846FDF7EBFF6C
:10267000002208212846FDF7E6FF0AE00022042197
:102680002846FDF7E0FF012208212846FDF7DBFF81
:102690004CB12046FFF7D0FD40F6AC5100F59670E6
:1026A00000F006FA00E00020B06370BD00100240A8
:1026B0000000014070B5134D134E041E0ADD0022C8
:1026C00001212846FDF7BFFF012202212846FDF720
:1026D000BAFF0AE0012211462846FDF7B4FF0022A6
:1026E00002212846FDF7AFFF4CB12046FFF7A4FDBD
:1026F00040F6AC5100F5967000F0DAF900E00020E9
:10270000706370BD0010024000000140FEF736B952
:1027100030B593B030216846FDF71DFE14210CA89A
:10272000FDF719FE1D480025016841F08051016048
:10273000006800F0805011901948016841F4804110
:1027400001600068022400F4804011900120009094
:10275000000401908001CDE9064008AA0420A821C8
:1027600082E813000B906846FEF77CFA08B172B657
:10277000FEE70CA90F2081E831004FF4A0500F9024
:102780004FF48050109005210CA8FEF791F9002815
:1027900001D072B6FEE713B030BD000040380240F1
:1027A000007000400248016841F470010160704708
:1027B00088ED00E00148FEF7ADBE0000E801002012
:1027C0000148FEF7A7BE000030020020F0B5026805
:1027D000294C2A4D2A4E2B4F2B4B4FF0804CA042B8
:1027E00009D0604507D0A84205D0B04203D0B84216
:1027F00001D0984204D122F0700E4A6842EA0E02DB
:10280000A0421BD0604519D0A84217D0B04215D0C5
:10281000B84213D0984211D01C4DA8420ED01C4D86
:10282000A8420BD01B4DA84208D01B4DA84205D092
:102830001A4DA84202D01A4DA84203D122F4407585
:10284000CA682A434D6922F080022A4302608A68DE
:10285000C2620A688262A04201D0984201D109692D
:102860000163012141610169C90703D0016921F0B8
:1028700001010161F0BD00000000014000040040C2
:1028800000080040000C00400004014000400140EE
:10289000004401400048014000180040001C004076
:1028A0000020004010B501F01F030121046A994087
:1028B0008C430462016A9A401143016210BD10B555
:1028C000846842EA032224F47F440A43224382605C
:1028D00010BD826822F070020A4342F00701816055
:1028E00070470000F0B5036A026A22F0010202623A
:1028F00042688469124E24F073050C682C4323F05F
:1029000002058B682B430D4DA84201D0B04205D182
:1029100023F00807CB683B4323F00403A84201D00F
:10292000B04205D14D6922F4407215438A692A43A9
:1029300042608461496841630362F0BD0000014068
:1029400000040140F0B5026A036A23F01003036239
:10295000436884690D6824F4E64444EA05248D68DC
:1029600022F0200242EA05120F4D104EA84201D07B
:10297000B04206D1CF6822F0800242EA071222F06C
:102980004002A84201D0B04207D14D6923F4406310
:1029900043EA85038D6943EA85034360846149689E
:1029A00081630262F0BD00000000014000040140AC
:1029B000F0B5026A036A23F4807303624368C46952
:1029C00022F4007224F073050C68124E2C438D68BB
:1029D00042EA05220E4DA84201D0B04206D1CF688E
:1029E00022F4006242EA072222F48062A84201D067
:1029F000B04207D14D6923F4405343EA05138D6972
:102A000043EA05134360C4614968C1630262F0BDD3
:102A1000000001400004014030B5046A026A22F45B
:102A2000805202624268C3690D6823F4E64343EAB8
:102A300005238D6824F4005444EA0534084DA84267
:102A400002D0084DA84204D14D6922F4804242EAE6
:102A500085124260C36149680164046230BD0000B0
:102A6000000001400004014010B5036A046A24F02C
:102A700001040462846924F0F00444EA021423F09F
:102A80000A020A438461026210BD10B5036A046A37
:102A900024F010040462846923F0A00324F4704439
:102AA00044EA023243EA01118261016210BDFEE78D
:102AB0004A42904200DA1046884200DD08467047DC
:102AC0000907090E002804DB00F1E02080F800145B
:102AD000704700F00F0000F1E02080F8141D7047EF
:102AE00010B50B480C4C4FF480710278094822B1A4
:102AF0000022FDF7A8FD012203E00122FDF7A3FD5E
:102B000000222046BDE810400121FDF79CBD0000D9
:102B100000000020000C0240000402402DE9F05F9C
:102B2000FF4E2DED0E8B70789FEDFE8ADFF8F88357
:102B3000DFF8F89300270125A6F11404012802D03C
:102B4000022836D12CE0E570B0EE480AFFF76AFDA6
:102B5000B0EE480AC8F80000FFF764FDDFF8D0A324
:102B6000C9F8000040215046FDF768FDA8B9802152
:102B70005046FDF763FD80B94FF480715046FDF774
:102B80005DFD50B94FF400715046FDF757FD20B977
:102B90000221E848FDF752FD58B10220707008E0AC
:102BA000E77000224FF40041E148FDF74CFD25702D
:102BB0007770B0789FEDE0EADFEDE09A9FEDE0AA54
:102BC000DFF880A3DFF880B30A287DD2DFE800F0C9
:102BD000D105303A5F686B9CA2C8E570B0EE480A38
:102BE000FFF720FDB0EE480AC8F80000FFF71AFD15
:102BF000C9F800004021CE48FDF720FDB0B9802182
:102C0000CB48FDF71BFD88B94FF48071C848FDF72C
:102C100015FD58B94FF40071C548FDF70FFD28B9EF
:102C20000221C448FDF70AFD00284DD0022095E09E
:102C300000224FF40041BE48FDF705FD2570E77006
:102C400003208BE00122D103B948FDF7FCFC65703D
:102C5000B0EE690AFFF7E6FCB0EE4A0AC8F80000D9
:102C6000FFF7E0FCB0EE4E0AC9F80000FFF7EAFA01
:102C7000B1EE0C0ACAF80000FFF7E4FACBF8000046
:102C8000B2480168B248814273DB042066E0677095
:102C900000224FF40041A648FDF7D5FC05205DE079
:102CA000257006205AE00122D103A148FDF7CBFC94
:102CB000E570B0EE480AFFF7B5FCB0EE480AC8F878
:102CC0000000FFF7AFFC00E049E0C9F80000402138
:102CD0009748FDF7B3FCA8B980219548FDF7AEFCF5
:102CE00080B94FF480719248FDF7A8FC50B94FF4B9
:102CF00000718F48FDF7A2FC20B902218D48FDF735
:102D00009DFC60B3072029E0FFF77EFA2570E7708D
:102D1000082023E00122D1038548FDF794FC65706B
:102D2000B0EE690AFFF77EFCB0EE4A0AC8F8000070
:102D3000FFF778FCB0EE4E0AC9F80000FFF782FA00
:102D4000B1EE0C0ACAF80000FFF77CFACBF80000DD
:102D50007E4801687E4881420BDB0920B07008E0A4
:102D6000677000224FF400417148FDF76CFC25703C
:102D7000B770F078DFED778ADFED77AA9FED77BA4D
:102D8000DFED77BA9FED779A9FED77CADFED77CACF
:102D90009FED77DADFED77DA0A287CD2DFE800F002
:102DA0007B053A6CA1FAF9F8F7F600224FF480712E
:102DB0007148FDF748FC6570B0EE680AFFF742FA0B
:102DC000B0EE680ACAF80000FFF73CFAB0EE480A15
:102DD000CBF80000FFF726FCB0EE480AC8F8000068
:102DE000FFF720FCC9F800005848644900680968EA
:102DF000084400EBD070401000EE100A6049B8EEB5
:102E0000C00A10EE100A884245DB6770FFF7FCF934
:102E10000220A4E1012211025748FDF714FC01220F
:102E2000D1034348FDF70FFC6570B0EE4C0AFFF785
:102E300009FAB0EE4D0ACAF80000FFF703FAB0EE47
:102E40006D0ACBF80000FFF7EDFB9FED4E0AC8F8C6
:102E50000000FFF7E7FBC9F800003C484A4990ED45
:102E6000000AB8EEC00A10EE100A8842CCDB677088
:102E7000FFF7CAF9032072E100224FF480713E4847
:102E8000FDF7E1FB0122D1032948FDF7DCFB65706A
:102E9000B0EE4D0A00E009E1FFF7D4F9B0EE4C0ABC
:102EA000CAF80000FFF7CEF99FED360ACBF8000014
:102EB000FFF7B8FBB0EE6D0AC8F80000FFF7B2FBF1
:102EC000C9F800002D48304990ED000AB8EEC00A5C
:102ED00010EE100A884297DB6770FFF795F904201F
:102EE0003DE10122257011022348FDF7ACFB0122D0
:102EF000D1030F48FDF7A7FB6570B0EE6A0AFFF734
:102F000091FBB0EE6D0AC8F80000FFF78BFBB0EE46
:102F10004B0AC9F80000FFF795F9B0EE6B0A3AE0EA
:102F2000140000200000A042B4000020B8000020DF
:102F300000180240000402406666A6403333874210
:102F4000CDCCB642AC000020B00000209C00002098
:102F5000B8700400A799AF3F6666B242E3E6DC4072
:102F600020F8A140A0243C3F20F8214084555B403C
:102F70007EE067409A998342000C0240A000002046
:102F80008B0C96476666BC42C5660A48E9E0C2E01B
:102F90008DE059E019E0CAF80000FFF753F9CBF8CB
:102FA0000000FE480068B0F5164F00DB2770FC49B2
:102FB000884290DBFB480168FB48814276DB257044
:102FC0006770FFF721F90520C9E000224FF48071F6
:102FD000F648FDF738FB0122D103F548FDF733FB36
:102FE0006570B0EE490AFFF72DF9B0EE490ACAF84C
:102FF0000000FFF727F9B0EE480ACBF80000FFF712
:1030000011FBB0EE480AC8F80000FFF70BFBC9F847
:103010000000E2480168E3480268881800EBD070BD
:10302000401000EE100AE349B8EEC00A10EE100A94
:1030300088423BDB67700A2301210420FFF7C2F9B5
:10304000FFF7E2F806208AE001221102D748FDF7D7
:10305000FAFA0122D103D648FDF7F5FA6570B0EE11
:103060006C0AFFF7EFF8B0EE4C0ACAF80000FFF761
:10307000E9F81FED3C0ACBF80000FFF7D3FAB0EEF9
:103080006D0AC8F80000FFF7CDFAC9F80000C5487E
:10309000C94990ED000AB8EEC00A10EE100A884245
:1030A00068DB6770FFF7B0F8072058E058E00022AF
:1030B0004FF48071BD48FDF7C6FA0122D103BC4828
:1030C000FDF7C1FA65709FEDBD0AFFF7BBF8B0EEE2
:1030D0004D0ACAF80000FFF7B5F8B0EE6D0ACBF85C
:1030E0000000FFF79FFA1FED590AC8F80000FFF72C
:1030F00099FAC9F80000A948B14990ED000AB8EE64
:10310000C00A10EE100A884234DB25706770FFF7A2
:103110007BF8082023E00122D103A548FDF793FAAC
:103120006570B0EE690AFFF77DFAB0EE4A0AC8F89A
:103130000000FFF777FAB0EE4E0AC9F80000FFF77B
:1031400081F8B1EE0C0ACAF80000FFF77BF8CBF863
:103150000000924801689B4881420BDB0920F07017
:1031600008E0677000224FF400419148FDF76BFAC8
:103170002570F77030790A2870D2DFE800F06F050B
:103180003D73A6DEFEFDFCFB20790022401C207171
:103190004FF480718548FDF756FA6570B0EE680A05
:1031A000FFF750F8B0EE680ACAF80000FFF74AF8D7
:1031B000B0EE480ACBF80000FFF734FAB0EE480A48
:1031C000C8F80000FFF72EFAC9F8000073487549E7
:1031D00000680968084400EBD070401000EE100A47
:1031E0007949B8EEC00A10EE100A884236DB6770E3
:1031F000FFF70AF8022030E0012211026B48FDF7C8
:1032000022FA0122D1036A48FDF71DFA6570B0EE7B
:103210004C0AFFF717F8B0EE4D0ACAF80000FFF7A6
:1032200011F8B0EE6D0ACBF80000FFF7FBF91FEDC7
:10323000AB0AC8F80000FFF7F5F9C9F800005748D5
:103240005D4990ED000AB8EEC00A10EE100A8842FF
:1032500004DB6770FEF7D8FF03203071BDEC0E8BE6
:10326000BDE8F09F00224FF480715048FDF7EBF964
:103270000122D1034E48FDF7E6F96570B0EE4D0A24
:10328000FEF7E0FFB0EE4C0ACAF80000FEF7DAFFE6
:103290001FEDC40ACBF80000FFF7C4F9B0EE6D0AC9
:1032A000C8F80000FFF7BEF9C9F800003D484249E0
:1032B00090ED000AB8EEC00A10EE100A8842CDDB8D
:1032C0006770FEF7A1FF0420C7E7012225701102F5
:1032D0003648FDF7B8F90122D1033548FDF7B3F9B7
:1032E0006570B0EE6A0AFFF79DF9B0EE6D0AC8F896
:1032F0000000FFF797F9B0EE4B0AC9F80000FEF79F
:10330000A1FFB0EE6B0ACAF80000FEF79BFFCBF8F6
:10331000000022480068B0F5164F9FDB2049277057
:1033200088429BDB1F4801681F48814296DB25705D
:103330006770FEF769FF05208FE700224FF4807168
:103340001A48FDF780F90122D1031948FDF77BF9EE
:103350006570B0EE490AFEF775FFB0EE490ACAF88B
:103360000000FEF76FFFB0EE480ACBF80000FFF751
:1033700059F903E0C9E0A3E06EE03BE0B0EE480A93
:10338000C8F80000FFF74EF9C9F8000003480168CB
:1033900004480268881800EBD07017E09C000020F9
:1033A00000DC0500A000002078510400000C024061
:1033B000001802404CC42047C5660A489C3D28407E
:1033C000A5C20F48B87004008B0C9647401000EE61
:1033D000100A5549B8EEC00A10EE100A88429CDB6C
:1033E00067700A2301210420FEF7ECFFFEF70CFFB3
:1033F000062032E7012211024C48FDF724F9012290
:10340000D1034B48FDF71FF96570B0EE6C0AFEF76B
:1034100019FFB0EE4C0ACAF80000FEF713FF9FED4B
:10342000450ACBF80000FFF7FDF8B0EE6D0AC8F8CA
:103430000000FFF7F7F8C9F800003F483F4990ED5A
:10344000000AB8EEC00A10EE100A8842C7DB6770A7
:10345000FEF7DAFE072000E700224FF480713348C0
:10346000FDF7F1F80122D1033148FDF7ECF8657062
:103470001FED2E0AFEF7E6FEB0EE4D0ACAF8000078
:10348000FEF7E0FEB0EE6D0ACBF80000FFF7CAF8D9
:103490009FED280AC8F80000FFF7C4F8C9F800003B
:1034A0002748284990ED000AB8EEC00A10EE100A2D
:1034B000884294DB25706770FEF7A6FE0820CCE6F4
:1034C0000122D1031A48FDF7BEF86570B0EE690A13
:1034D000FFF7A8F8B0EE4A0AC8F80000FFF7A2F814
:1034E0009FED190AC9F80000FEF7ACFEB1EE0A0A1A
:1034F000CAF80000FEF7A6FECBF8000010480068EE
:10350000B0F57A3FA2DB0920A7E6677000224FF4EE
:1035100000410748FDF797F82570207908B1377109
:103520009CE635719AE600004CC42047000C02402E
:10353000001802406666BC42A0000020C5660A482A
:103540009C000020A5C20F48666696400C4810B546
:10355000447900210B4B012214B15A70417110BD06
:10356000047A14B19A70017210BDC47A14B1DA7081
:10357000C17210BD847B002CFBD01A71817310BD09
:10358000780200201400002070B510211F48FDF7BC
:1035900055F800B101201E4C012120711D48FDF796
:1035A0004DF800B101201C4DE0714FF480712846A8
:1035B000FDF744F800B10120A07208212846FDF76C
:1035C0003DF800B101200021607301224FEA0103A0
:1035D00001EB4100255C25B1012D07D0022D10D152
:1035E0000BE005196D7865B122540AE005196E7873
:1035F00036B102262654AA7003E005196D7805B984
:103600002354491C0529E3DB70BD00000010024073
:10361000780200200000024000140240FDF7B6F9D5
:10362000FFF776F8FEF7E8FBFEF7AEFCFEF7CCFC02
:10363000FEF736FDFEF768FDFEF79CFDFEF7BEFDCA
:10364000FEF712FFFFF782FFFFF74AFAFFF766FA6D
:10365000F8E74FF04070E1EE100A704700000000FC
:103660000000000001020304060708090000000032
:103670000102030400000000000000000000000040
:1036800000000000000000F800000000000000330F
:103690003000000000100C06100C060000000000B6
:1036A0000000000040C07840C0784000043F04049F
:1036B0003F040400007088FC08300000001820FF60
:1036C000211E0000F008F000E018000000211C039B
:1036D0001E211E0000F00888700000001E21232417
:1036E0001927211010160E00000000000000000035
:1036F00000000000000000E01804020000000007C5
:103700001820400000020418E000000000402018CB
:1037100007000000404080F0804040000202010F9E
:1037200001020200000000F0000000000101011F82
:1037300001010100000000000000000080B07000E6
:103740000000000000000000000000000001010176
:103750000101010100000000000000000030300005
:1037600000000000000000008060180400601806DF
:103770000100000000E010080810E000000F102019
:1037800020100F00001010F8000000000020203F63
:1037900020200000007008080888700000302824ED
:1037A000222130000030088888483000001820208E
:1037B00020110E000000C02010F8000000070424B3
:1037C000243F240000F808888808080000192120F8
:1037D00020110E0000E0108888180000000F112052
:1037E00020110E0000380808C83808000000003F0B
:1037F000000000000070880808887000001C22216A
:1038000021221C0000E010080810E0000000312216
:1038100022110F00000000C0C000000000000030B6
:103820003000000000000080000000000000806008
:103830000000000000008040201008000001020489
:103840000810200040404040404040000404040470
:10385000040404000008102040800000002010082C
:1038600004020100007048080808F0000000003061
:1038700036010000C030C828E810E00007182724EF
:1038800023140B000000C038E0000000203C23029D
:103890000227382008F8888888700000203F202000
:1038A00020110E00C0300808080838000718202032
:1038B0002010080008F808080810E000203F202029
:1038C00020100F0008F88888E8081000203F20200A
:1038D0002320180008F88888E8081000203F2000FE
:1038E00003000000C0300808083800000718202036
:1038F000221E020008F808000008F808203F2101F5
:1039000001213F20000808F8080800000020203F9F
:103910002020000000000808F8080800C08080800F
:103920007F00000008F888C028180800203F200108
:103930002638200008F8080000000000203F202062
:103940002020300008F8F800F8F80800203F003F79
:10395000003F200008F830C00008F808203F200091
:1039600007183F00E01008080810E0000F102020A2
:1039700020100F0008F808080808F000203F210177
:1039800001010000E01008080810E0000F182424CE
:1039900038504F0008F8888888887000203F200041
:1039A000030C3020007088080808380000382021F7
:1039B00021221C00180808F8080818000000203F01
:1039C0002000000008F808000008F808001F202068
:1039D00020201F000878880000C838080000073839
:1039E0000E010000F80800F80008F800033C07008A
:1039F000073C0300081868808068180820302C03F2
:103A0000032C30200838C800C83808000000203FC8
:103A10002000000010080808C838080020382621B7
:103A200020201800000000FE020202000000007FBB
:103A300040404000000C30C00000000000000001C9
:103A40000638C00000020202FE00000000404040B4
:103A50007F000000000004020202040000000000D9
:103A60000000000000000000000000008080808056
:103A7000808080800002020400000000000000003E
:103A800000000000000080808080000000192422D7
:103A900022223F2008F8008080000000003F112013
:103AA00020110E000000008080800000000E112018
:103AB00020201100000000808088F800000E1120F6
:103AC00020103F200000808080800000001F222204
:103AD00022221300008080F0888888180020203F70
:103AE000202000000000808080808000006B949483
:103AF0009493600008F8008080800000203F21003F
:103B000000203F2000809898000000000020203F07
:103B100020200000000000809898000000C08080F5
:103B2000807F000008F8000080808000203F240291
:103B30002D302000000808F8000000000020203F81
:103B4000202000008080808080808000203F200036
:103B50003F20003F8080008080800000203F2100C7
:103B600000203F200000808080800000001F202077
:103B700020201F00808000808000000080FFA120A6
:103B800020110E000000008080808000000E1120B7
:103B900020A0FF80808080008080800020203F2146
:103BA00020000100000080808080800000332424F9
:103BB00024241900008080E0808000000000001FA5
:103BC000202000008080000000808000001F202056
:103BD00020103F20808080000080808000010E3017
:103BE0000806010080800080008080800F300C0378
:103BF0000C300F0000808000808080000020312E7B
:103C00000E312000808080000080808080818E7056
:103C10001806010000808080808080000021302C08
:103C20002221300000000000807C02020000000021
:103C3000003F404000000000FF00000000000000C6
:103C4000FF0000000002027C800000000040403FB6
:103C50000000000000060101020204040000000050
:103C60000000000020102CE72424403C1010FF101E
:103C7000101000000101017F21118041310D030D61
:103C800031418100404042CC0008E9AAB8A8A8AA66
:103C9000E90800000040201F20405F4A4A4A4A4A83
:103CA0005F4040001060028C0008F94EC820584F59
:103CB00048C8080004047E8140300F407F004484DF
:103CC0007F04040080808888888888FF88888888A6
:103CD0008880800000007C404040407F4040404061
:103CE000FC00000000FE0222DA06000000FF0000D7
:103CF0000000000000FF0810884720180700071880
:103D000020408000082848890E8878080800F800BC
:103D100000FF0000402010090619600000000F405D
:103D2000807F0000008060F847404444447F444462
:103D300044444000010000FF40404444447F444468
:103D400044444000807000FF102810FC0340207F96
:103D50008886E00080601807083004050404FF042A
:103D600004040400101014D45454545F545454D414
:103D70001410100020201013FA4622060A122253B3
:103D80004884800000F000FF00F020104C4B4848B1
:103D9000C8480800001F100F081F00304844424167
:103DA000404070000000F8484848C8484848FF08AC
:103DB00009CA080080601F828A5623528E40271845
:103DC0002641F00004040404F49495969494F404B9
:103DD0000404040000FE02027A4A4A4A4A4A7A026D
:103DE00082FE00008484FC8484405E505050DF508A
:103DF00050505E0010301F080800FE02027F027E55
:103E00000282FE0000FE0222DA0600FC0404040422
:103E100004FC000000FF0810080700FF4141414179
:103E200041FF000000000000000000000000000052
:103E30000000000000000000000000000000000082
:103E40000000000000000000000000000000000072
:103E50000000000000000000000000000000000062
:103E60000000000000000000000000000000000052
:103E70000000000000000000000000000000000042
:103E80000000000000000000000000000000000032
:103E90000000000000000000000000000000000022
:103EA0000000000000000000000000000000000012
:103EB0000000000000000000000000000000000002
:103EC00000000000000000000000000000000000F2
:103ED00000000000000000000000000000000000E2
:103EE00000000000000000000000000000000000D2
:103EF00000000000000000000000000000000000C2
:103F000000000000000000000000000000000000B1
:103F100000000000000000000000000000000000A1
:103F20000000000000000000000000000080808011
:103F3000C0C0800000000000000000000000000081
:103F40000000000000C000000000000000000000B1
:103F50000000000000000000000000000000000061
:103F60000000000000000000000000000000C0C0D1
:103F70000000000000000000000000000000000041
:103F800000000020C0000000000000000000000051
:103F90000000000080000060008060100000000051
:103FA00000000000000000000020C00020311111BE
:103FB000D03E0C0888F02000000000008080004007
:103FC000584EC6624F25EC702321202020000000AF
:103FD000000000000000040C8CFC26060600000017
:103FE00000000000000000003030100BFE00F03F29
:103FF000101A0C808000000000000000000000206B
:1040000060E0F0BF9D0C060600000000000000000C
:1040100000E0000407043412D3B1D9814506000042
:104020000000000000000000000001060202020281
:10403000030302060300000000000000000000006F
:104040000000090507030302040C0800000000003B
:104050000000020602020203010101010101010147
:10406000030000000000000E060602030301010128
:104070000101010101030000000000000008080820
:104080000403000001010103060C08000000000009
:10409000000000000014131030100F070000000093
:1040A0000000000000000000000000000000000010
:1040B0000000000000000000000000000000000000
:1040C00000000000000000000000000000000000F0
:1040D00000000000000000000000000000000000E0
:1042B0000000000000000000F0000000000000000E
:1042C00000000000000000000000000000000000EE
:1042D00000000000000000000000000000000000DE
:1042E00000000000000000000000000000000000CE
:1042F00000008040400000000000000000000000BE
:1043000000000000000000000000000000000000AD
:10431000000000000000C0000000000000000000DD
:10432000000000000000000000000000000000008D
:10433000000000000000A008020000040C0000C003
:10434000000000000000000000000000000000303D
:10435000E000000040402010080000000000008045
:1043600060180C0400000000000040404020E07C89
:1043700013010000F058602020000040C060203091
:104380003020000080E07070300000000000E0B0DD
:1043900090988880E09BC00000808000804040C0F2
:1043A00060000000000000000000000000000000AD
:1043B00000000000F00A80C020300CC63E00001F44
:1043C00010101010181F30202020606030100804DA
:1043D00002030304082040F800000000000000036E
:1043E00002020202030100000000000080700F00C2
:1043F00000000003010000000000000001020202B2
:104400000101010100030202020202020206070387
:104410000303020101010101010000402014030017
:10442000000000000000000000000000000000008C
:104430000000000001010000000000010000000079
:10444000000000000000000000000000000000006C
:10445000000000000000000000000000000000005C
:10446000000000000000000000000F060100000036
:10447000000000000000000000000000000000003C
:104480000000000000000000000000D80000000054
:1044900000008040402008000400010000000000EF
:1044A000000000000000000000000000000000000C
:1044B00000000000000000000000000000000000FC
:1044C00000000000000000000000000000000000EC
:1044D00000000000000000000000000000000000DC
:1044E00000000000000000000000000000000000CC
:1044F00000000000000000000000000000000000BC
:1045000000000000000000000000000302020202A0
:104510000101000000000000000000000000000099
:10452000000000000000000000000000000000008B
:10453000000000000000000000000000000000007B
:10454000000000000000000000000000000000006B
:10455000000000000000000000000000000000005B
:10456000000000000000000000000000000000004B
:10457000000000000000000000000000000000003B
:10458000000000000000000000000000000000002B
:10459000000000000000000000000000000000001B
:1045A000000000000000000000000000000000000B
:1045B00000000000000000000000000000000000FB
:1045C00000000000000000000000000000000000EB
:1045D00000000000000000000000000000000000DB
:1045E00000000000000000000000000000000000CB
:1045F00000000000000000000000000000000000BB
:1046000000000000000000000000000000000000AA
:10461000000000000000000000000000000000009A
:10462000000000004446000800000020BC0000001C
:10463000C401000800470008BC0000202C0800004E
:10464000E001000800000000000000000000000081
:10465000000000000000000000000000000000005A
:104660000100000010000000000000000024F40021
:10467000EC51B83D17B7D1393D0A973EEC51B83DE2
:1046800017B7D1393D0A973E9A99993FCDCC4C3E08
:10469000CDCC4C3E9A99993FCDCC4C3ECDCC4C3EA6
:1046A000000000000000000000000000000000000A
:1046B00000000000000000000000000000000000FA
:1046C00000000000000000000000000000000000EA
:1046D00000000000000000000000000000000000DA
:1046E00000000000000000000000000000000000CA
:1046F00000000000000000000000000000000000BA
:040000050800018965
:00000001FF
